:100000001402002041070000B9070000C1070000EA
:10001000C9070000C9070000C90700000000000070
:10002000000000000000000000000000C907000000
:10003000C907000000000000C9070000C907000050
:10004000C9070000C9070000C9070000C907000070
:10005000C9070000C9070000C9070000C907000060
:10006000C9070000C9070000C9070000C907000050
:10007000C9070000C9070000C9070000C907000040
:10008000C9070000C9070000C907000025050000D6
:10009000C90700007D060000C9070000C90700006D
:1000A000C9070000C9070000C9070000C907000010
:1000B000C9070000C9070000C9070000C907000000
:1000C000C9070000C9070000C9070000C9070000F0
:1000D000C9070000C9070000C9070000C9070000E0
:1000E000C90700000000000000000000C907000070
:1000F000C9070000C9070000C9070000C9070000C0
:10010000C9070000C9070000C9070000C9070000AF
:100110000000000000000000C9070000C90700003F
:10012000C9070000C9070000C9070000C90700008F
:10013000C9070000C9070000C9070000C90700007F
:1001400000000000000000000000000000000000AF
:10015000C9070000C9070000C9070000C90700005F
:10016000000000000000000000000000000000008F
:10017000000000000000000000000000000000007F
:10018000000000000000000000000000000000006F
:10019000000000000000000000000000000000005F
:1001A000000000000000000000000000000000004F
:1001B000C9070000C9070000C9070000C9070000FF
:1001C000C9070000C9070000C9070000C9070000EF
:1001D000C9070000C9070000C9070000C9070000DF
:1001E000C9070000C9070000C9070000000000009F
:1001F00000000000C9070000C9070000C90700008F
:10020000C9070000C907000000000000000000004E
:10021000C9070000C9070000C9070000C90700009E
:10022000C9070000C9070000C9070000C90700008E
:10023000C9070000C9070000C9070000C90700007E
:10024000C9070000C9070000C9070000C90700006E
:10025000C9070000C9070000C9070000C90700005E
:10026000C9070000C9070000C907000080B400AF3B
:1002700062B6BD465DF8047B704700BF80B400AF36
:1002800030BFBD465DF8047B704700BF80B500AF4E
:100290004FF46050CFF2000000F088FB032000F024
:1002A0009DFB48F6C473C4F2030303221A604FF4A3
:1002B0000040C4F20300402100F03EFB4FF4004038
:1002C000C4F20300012100F0A9FA4FF40040C4F287
:1002D000030001210022002300F0A7FA4FF40040A0
:1002E000C4F2030001210022622300F0C2FA4FF49D
:1002F0000040C4F20300012100F089FA80BD00BF74
:1003000080B483B000AF4EF20813C4F20F034EF274
:100310000812C4F20F02126842F002021A604EF292
:100320000813C4F20F031B687B604FF4A843C4F2A8
:1003300000034FF4A842C4F20002126842F0FF0228
:100340001A6045F22043C4F2000345F22042C4F291
:100350000002126822F0FF021A6045F21C53C4F238
:10036000000345F21C52C4F20002126842F0FF0280
:100370001A600C37BD465DF8047B704780B483B0CB
:1003800000AF4EF20813C4F20F034EF20812C4F28B
:100390000F02126842F001021A604EF20813C4F212
:1003A0000F031B687B604FF48843C4F200034FF4D3
:1003B0008842C4F20002126842F0FF021A6044F25E
:1003C0002043C4F2000344F22042C4F20002126847
:1003D00022F0FF021A6044F21C53C4F2000344F2FC
:1003E0001C52C4F20002126842F0FF021A600C377D
:1003F000BD465DF8047B704780B483B000AF4EF219
:100400000813C4F20F034EF20812C4F20F0212686E
:1004100042F010021A604EF20813C4F20F031B6878
:100420007B604FF48843C4F202034FF48842C4F265
:100430000202126842F0FF021A6044F22043C4F242
:10044000020344F22042C4F20202126822F0FF02C8
:100450001A6044F21C53C4F2020344F21C52C4F268
:100460000202126842F0FF021A600C37BD465DF8C6
:10047000047B704780B582B000AF78604FF4806035
:10048000CFF2000000F092FA0020C4F20300222113
:1004900000F0ECFB7B680020C4F20300FF211A4649
:1004A00000F016FC232000F051FA0020C4F20300F3
:1004B000012100F016FC0020C4F20300FF2100F02F
:1004C000CBFB0837BD4680BD80B582B000AF7860F9
:1004D00040F20140CFF2000000F068FA4FF4805083
:1004E000C4F20300222100F0C1FB7B684FF480506E
:1004F000C4F20300FF211A4600F0EAFB252000F0B9
:1005000025FA4FF48050C4F20300012100F0E9FB0A
:100510004FF48050C4F20300FF2100F09DFB083728
:10052000BD4680BD80B582B000AF0020C4F203009C
:10053000012100F0DAFB40F21003C2F200031B6855
:100540005A1C40F21003C2F200031A6040F210037A
:10055000C2F200031A68D3179B0F1A4402F0030279
:10056000D31A012B38D140F20C03C2F200031A68EF
:1005700046F26763C6F2666383FB02139910D317D2
:10058000C91A0B469B000B445B00D31A7B6044F2F4
:10059000FC33C4F2000344F2FC32C4F200021268DD
:1005A00042F0FF021A6045F2FC33C4F2000340F24D
:1005B0000002C2F2000279680A4412781A6044F21A
:1005C000FC33C4F2000344F2FC32C4F200021268AD
:1005D00022F010021A604DE040F21003C2F2000354
:1005E0001A68D3179B0F1A4402F00302D31A022B86
:1005F00040D140F20C03C2F200031A6846F267636E
:10060000C6F2666383FB02139910D317CA1A46F227
:100610006763C6F2666383FB02139910D317C91A86
:100620000B469B000B445B00D31A3B6044F2FC3347
:10063000C4F2000344F2FC32C4F20002126842F039
:10064000FF021A6045F2FC33C4F2000340F20002DC
:10065000C2F2000239680A4412781A6044F2FC338C
:10066000C4F2000344F2FC32C4F20002126822F029
:1006700020021A600837BD4680BD00BF80B500AFBC
:100680004FF40040C4F20300012100F0BCF84FF425
:100690000040C4F20300012100F041F900BF4FF413
:1006A0000040C4F203000121002200F091F803464B
:1006B000002BF4D04FF40040C4F20300012140F2BB
:1006C0001422C2F2000200F01AF940F21423C2F21E
:1006D00000031A684CF6CD43CCF6CC43A3FB0213BF
:1006E000DB081A4640F20C03C2F200031A6080BD18
:1006F00080B500AF4FF4A860C0F2402000F072F95E
:10070000FFF7FEFDFFF73AFEFFF776FEFFF7BEFDAF
:1007100000F0FCF903461846FFF7D6FE00F0F6F9A4
:10072000024648F21F53C5F2EB13A3FB0213DB0989
:100730001846FFF79FFEFFF799FDFFF79FFDFCE7C7
:1007400080B582B000AF40F67053C0F200037B600A
:1007500040F20003C2F200033B6007E03B681A1D51
:100760003A607A68111D796012681A603A6840F23E
:100770000C03C2F200039A42F0D30D480D494FF02A
:1007800000028842B8BF40F8042BFADB4EF68853CB
:10079000CEF200034EF68852CEF20002126842F406
:1007A00070021A60FFF7A4FF0837BD4680BD000045
:1007B0000C0000201802002080B400AFFEE700BF4C
:1007C00080B400AFFEE700BF80B400AFFEE700BF1B
:1007D0003AB1C3684FF0011010FA01F101EA0300C9
:1007E000704743680120884040F48030184010F47E
:1007F000803F07D04FF4803340F4702013FA01F1AA
:1008000020EA0100704701238B40C36070470368F2
:1008100001228A4042EA0303036070470368012211
:100820008A4023EA020303607047F0B58C000F256D
:100830004769A540ED4302F00F0605EA0707A64009
:1008400047EA06064661066A03F0030313FA04F456
:10085000354025430562C469C90030238B4002F04E
:10086000300224EA030312FA01F143EA0101C161F3
:10087000F0BD02314901F0B592000F260D589640A7
:10088000F64303F00F07974006EA05053D430C18B1
:100890000D5003F47061A069090A3040914040EAAC
:1008A0000101A161606803F0F00109093040914045
:1008B00040EA01016160E06903F47001090D9140B3
:1008C000304040EA010113F4702FE1610FD06169FB
:1008D00003F4E0231B0C934001EA06061E43666105
:1008E0002369012111FA02F243EA020205E02369B9
:1008F000012111FA02F223EA02022261F0BD023163
:1009000049010918002003E08B6842F8043B0130DC
:10091000CB6813F4807F01D10828F5D17047826A33
:100920000B0C1B0442EA030301F00F01012212FA2F
:1009300001F10B43836270474908002301E0013352
:1009400049080029FBD1036370470000042804D143
:10095000134B1A6842F4803205E0052805D1104B8C
:100960001A6842F400321A607047062804D10C4B12
:100970001A6842F48022F6E70F2804D1094B1A685E
:1009800042F00202EFE70AD910384209064B00F0A4
:100990001F0053F82230012212FA00F0186070474D
:1009A00024ED00E010E000E0F00C00000A4B00F441
:1009B0007F4200F0FF0003EB1223800003F070423F
:1009C00040F0007023F07F43104323F4700340EAAB
:1009D000431301221A60704700E60F400138FDD131
:1009E000704700004149F0B5414E0D68346845F448
:1009F000006525F4800344F4006415F0010F0B60DA
:100A0000346016D010F0010F13D160F001021340D2
:100A1000384A4FF4807515600B604FF4002201E0F6
:100A2000013A62D03449096811F4807FF8D0002A75
:100A30005BD000F4FE6223F4FE6330492D4E134375
:100A400024F0004200EA010122F0700241EA0202B1
:100A500000F0080142EAC102244C2549236000F459
:100A600000550A6023F4005322F400522B43402720
:100A70002A4337604EBF0A6023600A60204948BF9E
:100A8000236023F0F86300EA010123F001030B4324
:100A900022F0FC5200F0FC5110F0804F42EA0102BB
:100AA00008D0184922F4800200EA010143F48003CF
:100AB0000A4301E022F0804210F4006F0CD14FF4A1
:100AC00000411148006810F0010F01D10139F8D13F
:100AD00023F4006322F4006204490B60044B1020ED
:100AE0001A60BDE8F040FFF779BFF0BD60E00F404D
:100AF00070E00F4058E00F4050E00F4030000080A1
:100B00000100C0070000404068E10F40464B1968F3
:100B10001A69002AB4BF02F0700301F03003202BE1
:100B200030B518D003D84BB1102B7BD104E0302B5B
:100B30000BD0702B76D10BE03C4B0DE001F4F8604C
:100B400080093B4B53F8203006E047F2305303E076
:100B50004FF4004300E0374B002A02DA12F4006F32
:100B600001E011F4006F38D133480568043041F4D6
:100B70008001006800F01F0400F4F8500134000AFE
:100B80006400013060432D4C05EA0404B3FBF0F32C
:100B9000A40A5C43A805800DA40A00FB034328486F
:100BA000006800F47040B0F5804F10D006D8B0F562
:100BB000005F15D0B0F5405F0FD106E0B0F5E04F13
:100BC00007D0B0F5104F08D105E01E4809E01E48D7
:100BD00007E01E4805E01E4803E04FF0FF3000E04C
:100BE0001C4811F4800F19D0002A11DA12F0804F3E
:100BF00007D012F4006F04D102F0FE525B00920D98
:100C000002E002F0FC52D20D0132B3FBF2F305E038
:100C100001F0F061C90D0131B3FBF1F3834238BF3C
:100C2000184630BD002030BD60E00F400024F400C5
:100C3000040D000000093D0060E10F4000FC0F00C2
:100C400010E00F4080F0FA02005A620240787D0105
:100C5000002D310100B4C404C26840F2011301EA5E
:100C6000030342EA0303C36070470000C36823F430
:100C7000807323F00103C3600B0E0360114B1A68ED
:100C8000114B02EA0303114A934201F0FF030ED114
:100C900001F4702243F4007343EA1213436001F439
:100CA0007003090A01F0FF0141EA132105E043F452
:100CB0000073090A436001F0FF0141F40071816093
:100CC000704700BF00E00F400000FF7000000A10F6
:100CD00011F0FF0F18BF826211F47F4F18BFC2627C
:100CE000704783690B43836170474162704700001E
:100CF00000E100E004E100E008E100E00CE100E0D8
:100D000010E100E040420F0000201C0080841E0023
:100D100000802500999E36000040380000093D0003
:100D200000803E0000004B00404B4C0000204E0075
:100D3000808D5B0000C05D000080700000127A00B2
:100D400000007D0080969800001BB7000080BB006B
:100D5000C0E8CE00647ADA000024F4000000FA0053
:100D600080A81201002D310100366E0140787D010E
:0C0D70003F065B4F666D7D077F6F000043
:00000001FF
